:100000000C9446000C9465000C9465000C946500FB
:100010000C9465000C9465000C9465000C946500CC
:100020000C9465000C9465000C9465000C946500BC
:100030000C9465000C94A3000C9465000C9465006E
:100040000C9465000C9465000C9465000C9465009C
:100050000C9465000C9465000C9465000C9465008C
:100060000C9465000C9465000C9465000C9465007C
:100070000C9465000C9465000C9465000C9465006C
:100080000C9465000C9465000C94650011241FBE4F
:10009000CFEFD0E4DEBFCDBF11E0A0E0B1E0E8EBF0
:1000A000F4E000E00BBF02C007900D92A231B1074F
:1000B000D9F721E0A2E1B1E001C01D92AB31B20756
:1000C000E1F70E943D020C945A020C940000CF9379
:1000D000C82F8A3019F48DE00E9467008091C0001B
:1000E00085FFFCCFC093C60080E090E0CF910895DB
:1000F0008BE0809381008DE790E09093890080935E
:10010000880082E080936F00109285001092840036
:100110008091000190910101A0910201B091030131
:100120008093120190931301A0931401B0931501D1
:100130008FB780688FBF089510928100089581E085
:100140008093160108951F920F920FB60F921124FB
:100150000BB60F922F933F934F935F936F937F93C1
:100160008F939F93AF93BF93EF93FF93809112016F
:1001700090911301A0911401B09115010197A1096B
:10018000B1098093120190931301A0931401B093CD
:100190001501892B8A2B8B2B91F40E949F00809153
:1001A000000190910101A0910201B091030180939F
:1001B000120190931301A0931401B0931501FF91C4
:1001C000EF91BF91AF919F918F917F916F915F91CF
:1001D0004F913F912F910F900BBE0F900FBE0F903C
:1001E0001F901895609300017093010180930201A4
:1001F0009093030160931201709313018093140193
:100200009093150108958091180190911901823001
:10021000910509F450C028F4009759F0019781F036
:1002200001C18330910509F485C0049709F4C1C068
:10023000F9C081E090E09093190180931801F6C015
:1002400080B1837039F484E090E090931901809339
:100250001801ECC080B18370823089F482E090E0B4
:10026000909319018093180110921A01809117013F
:10027000893008F0DBC08F5F80931701D7C080B151
:100280008370813089F483E090E09093190180932A
:10029000180110921A0180911701882309F4C6C031
:1002A000815080931701C2C081E090E090931901C2
:1002B00080931801BBC080B1837039F484E090E072
:1002C0009093190180931801B1C080B1837082307E
:1002D000A9F482E090E09093190180931801809135
:1002E0001A018B3008F4A2C080911701893018F4EC
:1002F0008F5F8093170110921A0198C080B18370AC
:10030000813089F483E090E0909319018093180183
:1003100010921A0180911701882309F487C0815037
:100320008093170183C081E090E09093190180933E
:1003300018017CC080B1837039F484E090E0909320
:1003400019018093180172C080B18370823089F4E2
:1003500082E090E0909319018093180110921A01A5
:1003600080911701893008F061C08F5F8093170179
:100370005DC080B183708130A9F483E090E09093F8
:1003800019018093180180911A018B3008F44EC036
:1003900080911701882319F08150809317011092E2
:1003A0001A0144C081E090E09093190180931801F4
:1003B0003DC080B1837039F484E090E090931901DE
:1003C0008093180133C080B18370823081F482E061
:1003D00090E0909319018093180110921A01809176
:1003E0001701893018F58F5F809317011FC080B106
:1003F0008370813081F483E090E0909319018093C1
:10040000180110921A0180911701882379F0815008
:10041000809317010BC081E090E0909319018093C5
:10042000180104C01092190110921801809118014E
:10043000909119018430910540F48230910580F447
:10044000009731F0019741F00895049791F00895D5
:100450008091170185B908958091170185B9089594
:100460008091170185B980911A018F5F80931A01DD
:1004700008951092170115B808958FEF84B915B833
:1004800011B882B964E670E080E090E00E94F2006A
:100490000E947800109219011092180187E0809351
:1004A00017010E940301809116018823E1F3109245
:0804B0001601F7CFF894FFCF0D
:1004B80001000000000000020000000067000000CA
:0204C800000032
:00000001FF
