:100000000C9446000C9465000C9465000C946500FB
:100010000C9465000C9465000C9465000C946500CC
:100020000C9465000C9465000C9465000C946500BC
:100030000C9465000C94A3000C9465000C9465006E
:100040000C9465000C9465000C9465000C9465009C
:100050000C9465000C9465000C9465000C9465008C
:100060000C9465000C9465000C9465000C9465007C
:100070000C9465000C9465000C9465000C9465006C
:100080000C9465000C9465000C94650011241FBE4F
:10009000CFEFD0E4DEBFCDBF11E0A0E0B1E0E4E5FA
:1000A000F3E000E00BBF02C007900D92A631B1074C
:1000B000D9F721E0A6E1B1E001C01D92AF31B2074E
:1000C000E1F70E948E010C94A8010C940000CF93DC
:1000D000C82F8A3019F48DE00E9467008091C0001B
:1000E00085FFFCCFC093C60080E090E0CF910895DB
:1000F0008BE0809381008DE790E09093890080935E
:10010000880082E080936F00109285001092840036
:100110008091040190910501A0910601B091070121
:100120008093160190931701A0931801B0931901C1
:100130008FB780688FBF089510928100089581E085
:1001400080931A0108951F920F920FB60F921124F7
:100150000BB60F922F933F934F935F936F937F93C1
:100160008F939F93AF93BF93EF93FF93809116016B
:1001700090911701A0911801B09119010197A1095F
:10018000B1098093160190931701A0931801B093C1
:100190001901892B8A2B8B2B91F40E949F0080914F
:1001A000040190910501A0910601B091070180938F
:1001B000160190931701A0931801B0931901FF91B4
:1001C000EF91BF91AF919F918F917F916F915F91CF
:1001D0004F913F912F910F900BBE0F900FBE0F903C
:1001E0001F90189560930401709305018093060198
:1001F0009093070160931601709317018093180183
:1002000090931901089580911C0190911D018130F6
:100210009105A1F040F08230910509F444C00397A4
:1002200009F451C064C081E090E090931D01809377
:100230001C0110921E0110921B015DC0009B06C0A4
:1002400080911B01813011F410921B0100990BC0A9
:1002500080911B01813039F481E090E090931D0181
:1002600080931C0115C0009B0BC080911B01811164
:1002700007C081E090E090931D0180931C0108C0AD
:1002800082E090E090931D0180931C0110921E016A
:1002900080911E01833020F48F5F80931E012BC05C
:1002A00010921E0128C0009B07C083E090E090934D
:1002B0001D0180931C011FC082E090E090931D01FE
:1002C00080931C0118C0009B07C083E090E09093CE
:1002D0001D0180931C010FC081E090E090931D01EF
:1002E00080931C0180931B0110921E0104C0109288
:1002F0001D0110921C0180911C0190911D0100971D
:1003000019F0019719F0089515B80895E0911E01AC
:10031000F0E0E050FF4F808185B908958FEF84B9F8
:1003200015B811B882B96CE271E080E090E00E94EB
:10033000F2000E94780010921D0110921C010E9490
:10034000030180911A018823E1F310921A01F7CF7B
:04035000F894FFCF4F
:10035400010204020100000000000002000000008D
:060364006700000000002C
:00000001FF
